{
  "_format": "hh-sol-artifact-1",
  "contractName": "GenericEye",
  "sourceName": "contracts/GenericEye.sol",
  "abi": [
    {
      "inputs": [
        {
          "internalType": "string",
          "name": "uri",
          "type": "string"
        },
        {
          "internalType": "bytes32",
          "name": "merkleroot",
          "type": "bytes32"
        },
        {
          "internalType": "address",
          "name": "_proxyRegistryAddress",
          "type": "address"
        },
        {
          "internalType": "uint256",
          "name": "_price",
          "type": "uint256"
        },
        {
          "internalType": "uint256",
          "name": "_maxSupply",
          "type": "uint256"
        },
        {
          "internalType": "uint256",
          "name": "_maxMintAmountPerTx",
          "type": "uint256"
        }
      ],
      "stateMutability": "nonpayable",
      "type": "constructor"
    },
    {
      "anonymous": false,
      "inputs": [
        {
          "indexed": true,
          "internalType": "address",
          "name": "owner",
          "type": "address"
        },
        {
          "indexed": true,
          "internalType": "address",
          "name": "approved",
          "type": "address"
        },
        {
          "indexed": true,
          "internalType": "uint256",
          "name": "tokenId",
          "type": "uint256"
        }
      ],
      "name": "Approval",
      "type": "event"
    },
    {
      "anonymous": false,
      "inputs": [
        {
          "indexed": true,
          "internalType": "address",
          "name": "owner",
          "type": "address"
        },
        {
          "indexed": true,
          "internalType": "address",
          "name": "operator",
          "type": "address"
        },
        {
          "indexed": false,
          "internalType": "bool",
          "name": "approved",
          "type": "bool"
        }
      ],
      "name": "ApprovalForAll",
      "type": "event"
    },
    {
      "anonymous": false,
      "inputs": [
        {
          "indexed": true,
          "internalType": "contract IERC20",
          "name": "token",
          "type": "address"
        },
        {
          "indexed": false,
          "internalType": "address",
          "name": "to",
          "type": "address"
        },
        {
          "indexed": false,
          "internalType": "uint256",
          "name": "amount",
          "type": "uint256"
        }
      ],
      "name": "ERC20PaymentReleased",
      "type": "event"
    },
    {
      "anonymous": false,
      "inputs": [
        {
          "indexed": true,
          "internalType": "address",
          "name": "previousOwner",
          "type": "address"
        },
        {
          "indexed": true,
          "internalType": "address",
          "name": "newOwner",
          "type": "address"
        }
      ],
      "name": "OwnershipTransferred",
      "type": "event"
    },
    {
      "anonymous": false,
      "inputs": [
        {
          "indexed": false,
          "internalType": "address",
          "name": "account",
          "type": "address"
        },
        {
          "indexed": false,
          "internalType": "uint256",
          "name": "shares",
          "type": "uint256"
        }
      ],
      "name": "PayeeAdded",
      "type": "event"
    },
    {
      "anonymous": false,
      "inputs": [
        {
          "indexed": false,
          "internalType": "address",
          "name": "from",
          "type": "address"
        },
        {
          "indexed": false,
          "internalType": "uint256",
          "name": "amount",
          "type": "uint256"
        }
      ],
      "name": "PaymentReceived",
      "type": "event"
    },
    {
      "anonymous": false,
      "inputs": [
        {
          "indexed": false,
          "internalType": "address",
          "name": "to",
          "type": "address"
        },
        {
          "indexed": false,
          "internalType": "uint256",
          "name": "amount",
          "type": "uint256"
        }
      ],
      "name": "PaymentReleased",
      "type": "event"
    },
    {
      "anonymous": false,
      "inputs": [
        {
          "indexed": true,
          "internalType": "address",
          "name": "from",
          "type": "address"
        },
        {
          "indexed": true,
          "internalType": "address",
          "name": "to",
          "type": "address"
        },
        {
          "indexed": true,
          "internalType": "uint256",
          "name": "tokenId",
          "type": "uint256"
        }
      ],
      "name": "Transfer",
      "type": "event"
    },
    {
      "inputs": [
        {
          "internalType": "address",
          "name": "to",
          "type": "address"
        },
        {
          "internalType": "uint256",
          "name": "tokenId",
          "type": "uint256"
        }
      ],
      "name": "approve",
      "outputs": [],
      "stateMutability": "nonpayable",
      "type": "function"
    },
    {
      "inputs": [
        {
          "internalType": "address",
          "name": "owner",
          "type": "address"
        }
      ],
      "name": "balanceOf",
      "outputs": [
        {
          "internalType": "uint256",
          "name": "",
          "type": "uint256"
        }
      ],
      "stateMutability": "view",
      "type": "function"
    },
    {
      "inputs": [],
      "name": "baseExtension",
      "outputs": [
        {
          "internalType": "string",
          "name": "",
          "type": "string"
        }
      ],
      "stateMutability": "view",
      "type": "function"
    },
    {
      "inputs": [
        {
          "internalType": "uint256",
          "name": "tokenId",
          "type": "uint256"
        }
      ],
      "name": "getApproved",
      "outputs": [
        {
          "internalType": "address",
          "name": "",
          "type": "address"
        }
      ],
      "stateMutability": "view",
      "type": "function"
    },
    {
      "inputs": [],
      "name": "hiddenMetadataUri",
      "outputs": [
        {
          "internalType": "string",
          "name": "",
          "type": "string"
        }
      ],
      "stateMutability": "view",
      "type": "function"
    },
    {
      "inputs": [
        {
          "internalType": "address",
          "name": "owner",
          "type": "address"
        },
        {
          "internalType": "address",
          "name": "operator",
          "type": "address"
        }
      ],
      "name": "isApprovedForAll",
      "outputs": [
        {
          "internalType": "bool",
          "name": "",
          "type": "bool"
        }
      ],
      "stateMutability": "view",
      "type": "function"
    },
    {
      "inputs": [],
      "name": "maxMintAmountPerTx",
      "outputs": [
        {
          "internalType": "uint256",
          "name": "",
          "type": "uint256"
        }
      ],
      "stateMutability": "view",
      "type": "function"
    },
    {
      "inputs": [],
      "name": "maxSupply",
      "outputs": [
        {
          "internalType": "uint256",
          "name": "",
          "type": "uint256"
        }
      ],
      "stateMutability": "view",
      "type": "function"
    },
    {
      "inputs": [],
      "name": "name",
      "outputs": [
        {
          "internalType": "string",
          "name": "",
          "type": "string"
        }
      ],
      "stateMutability": "view",
      "type": "function"
    },
    {
      "inputs": [],
      "name": "owner",
      "outputs": [
        {
          "internalType": "address",
          "name": "",
          "type": "address"
        }
      ],
      "stateMutability": "view",
      "type": "function"
    },
    {
      "inputs": [
        {
          "internalType": "uint256",
          "name": "tokenId",
          "type": "uint256"
        }
      ],
      "name": "ownerOf",
      "outputs": [
        {
          "internalType": "address",
          "name": "",
          "type": "address"
        }
      ],
      "stateMutability": "view",
      "type": "function"
    },
    {
      "inputs": [],
      "name": "paused",
      "outputs": [
        {
          "internalType": "bool",
          "name": "",
          "type": "bool"
        }
      ],
      "stateMutability": "view",
      "type": "function"
    },
    {
      "inputs": [
        {
          "internalType": "uint256",
          "name": "index",
          "type": "uint256"
        }
      ],
      "name": "payee",
      "outputs": [
        {
          "internalType": "address",
          "name": "",
          "type": "address"
        }
      ],
      "stateMutability": "view",
      "type": "function"
    },
    {
      "inputs": [
        {
          "internalType": "address",
          "name": "",
          "type": "address"
        }
      ],
      "name": "presaleClaimed",
      "outputs": [
        {
          "internalType": "uint256",
          "name": "",
          "type": "uint256"
        }
      ],
      "stateMutability": "view",
      "type": "function"
    },
    {
      "inputs": [],
      "name": "presaleM",
      "outputs": [
        {
          "internalType": "bool",
          "name": "",
          "type": "bool"
        }
      ],
      "stateMutability": "view",
      "type": "function"
    },
    {
      "inputs": [
        {
          "internalType": "address",
          "name": "account",
          "type": "address"
        },
        {
          "internalType": "uint256",
          "name": "_amount",
          "type": "uint256"
        },
        {
          "internalType": "bytes32[]",
          "name": "_proof",
          "type": "bytes32[]"
        }
      ],
      "name": "presaleMint",
      "outputs": [],
      "stateMutability": "payable",
      "type": "function"
    },
    {
      "inputs": [],
      "name": "price",
      "outputs": [
        {
          "internalType": "uint256",
          "name": "",
          "type": "uint256"
        }
      ],
      "stateMutability": "view",
      "type": "function"
    },
    {
      "inputs": [],
      "name": "publicM",
      "outputs": [
        {
          "internalType": "bool",
          "name": "",
          "type": "bool"
        }
      ],
      "stateMutability": "view",
      "type": "function"
    },
    {
      "inputs": [
        {
          "internalType": "uint256",
          "name": "_amount",
          "type": "uint256"
        }
      ],
      "name": "publicSaleMint",
      "outputs": [],
      "stateMutability": "payable",
      "type": "function"
    },
    {
      "inputs": [
        {
          "internalType": "address payable",
          "name": "account",
          "type": "address"
        }
      ],
      "name": "release",
      "outputs": [],
      "stateMutability": "nonpayable",
      "type": "function"
    },
    {
      "inputs": [
        {
          "internalType": "contract IERC20",
          "name": "token",
          "type": "address"
        },
        {
          "internalType": "address",
          "name": "account",
          "type": "address"
        }
      ],
      "name": "release",
      "outputs": [],
      "stateMutability": "nonpayable",
      "type": "function"
    },
    {
      "inputs": [
        {
          "internalType": "contract IERC20",
          "name": "token",
          "type": "address"
        },
        {
          "internalType": "address",
          "name": "account",
          "type": "address"
        }
      ],
      "name": "released",
      "outputs": [
        {
          "internalType": "uint256",
          "name": "",
          "type": "uint256"
        }
      ],
      "stateMutability": "view",
      "type": "function"
    },
    {
      "inputs": [
        {
          "internalType": "address",
          "name": "account",
          "type": "address"
        }
      ],
      "name": "released",
      "outputs": [
        {
          "internalType": "uint256",
          "name": "",
          "type": "uint256"
        }
      ],
      "stateMutability": "view",
      "type": "function"
    },
    {
      "inputs": [],
      "name": "renounceOwnership",
      "outputs": [],
      "stateMutability": "nonpayable",
      "type": "function"
    },
    {
      "inputs": [],
      "name": "reveal",
      "outputs": [],
      "stateMutability": "nonpayable",
      "type": "function"
    },
    {
      "inputs": [],
      "name": "revealed",
      "outputs": [
        {
          "internalType": "bool",
          "name": "",
          "type": "bool"
        }
      ],
      "stateMutability": "view",
      "type": "function"
    },
    {
      "inputs": [],
      "name": "root",
      "outputs": [
        {
          "internalType": "bytes32",
          "name": "",
          "type": "bytes32"
        }
      ],
      "stateMutability": "view",
      "type": "function"
    },
    {
      "inputs": [
        {
          "internalType": "address",
          "name": "from",
          "type": "address"
        },
        {
          "internalType": "address",
          "name": "to",
          "type": "address"
        },
        {
          "internalType": "uint256",
          "name": "tokenId",
          "type": "uint256"
        }
      ],
      "name": "safeTransferFrom",
      "outputs": [],
      "stateMutability": "nonpayable",
      "type": "function"
    },
    {
      "inputs": [
        {
          "internalType": "address",
          "name": "from",
          "type": "address"
        },
        {
          "internalType": "address",
          "name": "to",
          "type": "address"
        },
        {
          "internalType": "uint256",
          "name": "tokenId",
          "type": "uint256"
        },
        {
          "internalType": "bytes",
          "name": "_data",
          "type": "bytes"
        }
      ],
      "name": "safeTransferFrom",
      "outputs": [],
      "stateMutability": "nonpayable",
      "type": "function"
    },
    {
      "inputs": [
        {
          "internalType": "address",
          "name": "operator",
          "type": "address"
        },
        {
          "internalType": "bool",
          "name": "approved",
          "type": "bool"
        }
      ],
      "name": "setApprovalForAll",
      "outputs": [],
      "stateMutability": "nonpayable",
      "type": "function"
    },
    {
      "inputs": [
        {
          "internalType": "string",
          "name": "_newBaseExtension",
          "type": "string"
        }
      ],
      "name": "setBaseExtension",
      "outputs": [],
      "stateMutability": "nonpayable",
      "type": "function"
    },
    {
      "inputs": [
        {
          "internalType": "string",
          "name": "_tokenBaseURI",
          "type": "string"
        }
      ],
      "name": "setBaseURI",
      "outputs": [],
      "stateMutability": "nonpayable",
      "type": "function"
    },
    {
      "inputs": [
        {
          "internalType": "uint256",
          "name": "_maxMintAmountPerTx",
          "type": "uint256"
        }
      ],
      "name": "setMaxMintAmountPerTx",
      "outputs": [],
      "stateMutability": "nonpayable",
      "type": "function"
    },
    {
      "inputs": [
        {
          "internalType": "bytes32",
          "name": "merkleroot",
          "type": "bytes32"
        }
      ],
      "name": "setMerkleRoot",
      "outputs": [],
      "stateMutability": "nonpayable",
      "type": "function"
    },
    {
      "inputs": [
        {
          "internalType": "uint256",
          "name": "_price",
          "type": "uint256"
        }
      ],
      "name": "setPrice",
      "outputs": [],
      "stateMutability": "nonpayable",
      "type": "function"
    },
    {
      "inputs": [
        {
          "internalType": "address",
          "name": "account",
          "type": "address"
        }
      ],
      "name": "shares",
      "outputs": [
        {
          "internalType": "uint256",
          "name": "",
          "type": "uint256"
        }
      ],
      "stateMutability": "view",
      "type": "function"
    },
    {
      "inputs": [
        {
          "internalType": "bytes4",
          "name": "interfaceId",
          "type": "bytes4"
        }
      ],
      "name": "supportsInterface",
      "outputs": [
        {
          "internalType": "bool",
          "name": "",
          "type": "bool"
        }
      ],
      "stateMutability": "view",
      "type": "function"
    },
    {
      "inputs": [],
      "name": "symbol",
      "outputs": [
        {
          "internalType": "string",
          "name": "",
          "type": "string"
        }
      ],
      "stateMutability": "view",
      "type": "function"
    },
    {
      "inputs": [],
      "name": "togglePause",
      "outputs": [],
      "stateMutability": "nonpayable",
      "type": "function"
    },
    {
      "inputs": [],
      "name": "togglePresale",
      "outputs": [],
      "stateMutability": "nonpayable",
      "type": "function"
    },
    {
      "inputs": [],
      "name": "togglePublicSale",
      "outputs": [],
      "stateMutability": "nonpayable",
      "type": "function"
    },
    {
      "inputs": [],
      "name": "toggleVipSale",
      "outputs": [],
      "stateMutability": "nonpayable",
      "type": "function"
    },
    {
      "inputs": [
        {
          "internalType": "uint256",
          "name": "tokenId",
          "type": "uint256"
        }
      ],
      "name": "tokenURI",
      "outputs": [
        {
          "internalType": "string",
          "name": "",
          "type": "string"
        }
      ],
      "stateMutability": "view",
      "type": "function"
    },
    {
      "inputs": [
        {
          "internalType": "contract IERC20",
          "name": "token",
          "type": "address"
        }
      ],
      "name": "totalReleased",
      "outputs": [
        {
          "internalType": "uint256",
          "name": "",
          "type": "uint256"
        }
      ],
      "stateMutability": "view",
      "type": "function"
    },
    {
      "inputs": [],
      "name": "totalReleased",
      "outputs": [
        {
          "internalType": "uint256",
          "name": "",
          "type": "uint256"
        }
      ],
      "stateMutability": "view",
      "type": "function"
    },
    {
      "inputs": [],
      "name": "totalShares",
      "outputs": [
        {
          "internalType": "uint256",
          "name": "",
          "type": "uint256"
        }
      ],
      "stateMutability": "view",
      "type": "function"
    },
    {
      "inputs": [],
      "name": "totalSupply",
      "outputs": [
        {
          "internalType": "uint256",
          "name": "",
          "type": "uint256"
        }
      ],
      "stateMutability": "view",
      "type": "function"
    },
    {
      "inputs": [
        {
          "internalType": "address",
          "name": "from",
          "type": "address"
        },
        {
          "internalType": "address",
          "name": "to",
          "type": "address"
        },
        {
          "internalType": "uint256",
          "name": "tokenId",
          "type": "uint256"
        }
      ],
      "name": "transferFrom",
      "outputs": [],
      "stateMutability": "nonpayable",
      "type": "function"
    },
    {
      "inputs": [
        {
          "internalType": "address",
          "name": "newOwner",
          "type": "address"
        }
      ],
      "name": "transferOwnership",
      "outputs": [],
      "stateMutability": "nonpayable",
      "type": "function"
    },
    {
      "inputs": [
        {
          "internalType": "address",
          "name": "",
          "type": "address"
        }
      ],
      "name": "vipClaimed",
      "outputs": [
        {
          "internalType": "uint256",
          "name": "",
          "type": "uint256"
        }
      ],
      "stateMutability": "view",
      "type": "function"
    },
    {
      "inputs": [],
      "name": "vipM",
      "outputs": [
        {
          "internalType": "bool",
          "name": "",
          "type": "bool"
        }
      ],
      "stateMutability": "view",
      "type": "function"
    },
    {
      "inputs": [
        {
          "internalType": "address",
          "name": "account",
          "type": "address"
        },
        {
          "internalType": "uint256",
          "name": "_amount",
          "type": "uint256"
        },
        {
          "internalType": "bytes32[]",
          "name": "_proof",
          "type": "bytes32[]"
        }
      ],
      "name": "vipMint",
      "outputs": [],
      "stateMutability": "payable",
      "type": "function"
    },
    {
      "stateMutability": "payable",
      "type": "receive"
    }
  ],
  "bytecode": "0x610100604052604160808181529062003fc560a03980516200002a9160179160209091019062000737565b5060408051808201909152600580825264173539b7b760d91b6020909201918252620000599160189162000737565b506019805464ffffffffff191664010000000017815560408051606081018252918252602360208301526028908201526200009990601b906003620007c6565b506040805160608101825273fd821ac0fe07f65f8c7b72616e145d393a82d4068152734173492fb0e3dfb8eaf7610ba139e86e30b0dafd602082015273df2d8bae5fc6b0f7e634fee9b195cbe704c1df07918101919091526200010190601c90600362000809565b503480156200010f57600080fd5b5060405162004006380380620040068339810160408190526200013291620008ab565b601c8054806020026020016040519081016040528092919081815260200182805480156200018a57602002820191906000526020600020905b81546001600160a01b031681526001909101906020018083116200016b575b5050505050601b805480602002602001604051908101604052809291908181526020018280548015620001dd57602002820191906000526020600020905b815481526020019060010190808311620001c8575b5050604080518082018252600a81526947656e6572696345796560b01b60208083019182528351808501909452600384526245594560e81b9084015281519195509193506200023192506000919062000737565b5080516200024790600190602084019062000737565b505050620002646200025e620003ef60201b60201c565b620003f3565b60016007558051825114620002db5760405162461bcd60e51b815260206004820152603260248201527f5061796d656e7453706c69747465723a2070617965657320616e6420736861726044820152710cae640d8cadccee8d040dad2e6dac2e8c6d60731b60648201526084015b60405180910390fd5b60008251116200032e5760405162461bcd60e51b815260206004820152601a60248201527f5061796d656e7453706c69747465723a206e6f207061796565730000000000006044820152606401620002d2565b60005b82518110156200039a5762000385838281518110620003545762000354620009c2565b6020026020010151838381518110620003715762000371620009c2565b60200260200101516200044560201b60201c565b806200039181620009ee565b91505062000331565b505050600f859055601280546001600160a01b0319166001600160a01b038616179055620003c88662000633565b620003d38362000697565b6014829055620003e381620006e7565b50505050505062000a64565b3390565b600680546001600160a01b038381166001600160a01b0319831681179093556040519116919082907f8be0079c531659141344cd1fd0a4f28419497f9722a3daafe3b4186f6b6457e090600090a35050565b6001600160a01b038216620004b25760405162461bcd60e51b815260206004820152602c60248201527f5061796d656e7453706c69747465723a206163636f756e74206973207468652060448201526b7a65726f206164647265737360a01b6064820152608401620002d2565b60008111620005045760405162461bcd60e51b815260206004820152601d60248201527f5061796d656e7453706c69747465723a207368617265732061726520300000006044820152606401620002d2565b6001600160a01b0382166000908152600a602052604090205415620005805760405162461bcd60e51b815260206004820152602b60248201527f5061796d656e7453706c69747465723a206163636f756e7420616c726561647960448201526a206861732073686172657360a81b6064820152608401620002d2565b600c8054600181019091557fdf6966c971051c3d54ec59162606531493a51404a002842f56009d7e5cf4a8c70180546001600160a01b0319166001600160a01b0384169081179091556000908152600a60205260409020819055600854620005ea90829062000a0c565b600855604080516001600160a01b0384168152602081018390527f40c340f65e17194d14ddddb073d3c9f888e3cb52b5aae0c6c7706b4fbc905fac910160405180910390a15050565b6006546001600160a01b031633146200067e5760405162461bcd60e51b8152602060048201819052602482015260008051602062003fa58339815191526044820152606401620002d2565b80516200069390601690602084019062000737565b5050565b6006546001600160a01b03163314620006e25760405162461bcd60e51b8152602060048201819052602482015260008051602062003fa58339815191526044820152606401620002d2565b601355565b6006546001600160a01b03163314620007325760405162461bcd60e51b8152602060048201819052602482015260008051602062003fa58339815191526044820152606401620002d2565b601555565b828054620007459062000a27565b90600052602060002090601f016020900481019282620007695760008555620007b4565b82601f106200078457805160ff1916838001178555620007b4565b82800160010185558215620007b4579182015b82811115620007b457825182559160200191906001019062000797565b50620007c292915062000861565b5090565b828054828255906000526020600020908101928215620007b4579160200282015b82811115620007b4578251829060ff16905591602001919060010190620007e7565b828054828255906000526020600020908101928215620007b4579160200282015b82811115620007b457825182546001600160a01b0319166001600160a01b039091161782556020909201916001909101906200082a565b5b80821115620007c2576000815560010162000862565b634e487b7160e01b600052604160045260246000fd5b80516001600160a01b0381168114620008a657600080fd5b919050565b60008060008060008060c08789031215620008c557600080fd5b86516001600160401b0380821115620008dd57600080fd5b818901915089601f830112620008f257600080fd5b81518181111562000907576200090762000878565b604051601f8201601f19908116603f0116810190838211818310171562000932576200093262000878565b81604052828152602093508c848487010111156200094f57600080fd5b600091505b8282101562000973578482018401518183018501529083019062000954565b82821115620009855760008484830101525b809a505050508089015196505050620009a1604088016200088e565b9350606087015192506080870151915060a087015190509295509295509295565b634e487b7160e01b600052603260045260246000fd5b634e487b7160e01b600052601160045260246000fd5b600060001982141562000a055762000a05620009d8565b5060010190565b6000821982111562000a225762000a22620009d8565b500190565b600181811c9082168062000a3c57607f821691505b6020821081141562000a5e57634e487b7160e01b600052602260045260246000fd5b50919050565b6135318062000a746000396000f3fe6080604052600436106103035760003560e01c806394354fd011610190578063c4ae3168116100dc578063da3ef23f11610095578063e985e9c51161006f578063e985e9c514610936578063ebf0c71714610956578063f2fde38b1461096c578063f9765bc11461098c57600080fd5b8063da3ef23f146108ec578063e222c7f91461090c578063e33b7de31461092157600080fd5b8063c4ae316814610820578063c668286214610835578063c87b56dd1461084a578063ce7c2ac21461086a578063d5abeb01146108a0578063d79779b2146108b657600080fd5b8063a22cb46511610149578063a475b5dd11610123578063a475b5dd146107b8578063b071401b146107cd578063b3ab66b0146107ed578063b88d4fde1461080057600080fd5b8063a22cb46514610762578063a45063c014610782578063a45ba8e7146107a357600080fd5b806394354fd0146106c5578063954dc3e3146106db57806395d89b41146106ee5780639852595c14610703578063a035b1fe14610739578063a1c0a24c1461074f57600080fd5b806348b750441161024f57806370a08231116102085780638b83209b116101e25780638b83209b1461063a5780638ce49f8d1461065a5780638da5cb5b1461068757806391b7f5ed146106a557600080fd5b806370a08231146105e5578063715018a6146106055780637cb647591461061a57600080fd5b806348b7504414610537578063518302271461055757806355f804b3146105765780635c975abb146105965780636352211e146105b05780637094f126146105d057600080fd5b806319165587116102bc5780633a98ef39116102965780633a98ef391461049a5780633e8a7c41146104af578063406072a9146104d157806342842e0e1461051757600080fd5b8063191655871461044557806323b872dd14610465578063343937431461048557600080fd5b806301ffc9a71461035157806306fdde0314610386578063081812fc146103a8578063095ea7b3146103e05780631798d58b1461040257806318160ddd1461042257600080fd5b3661034c577f6ef95f06320e7a25a04a175ca677b7052bdd97131872c2192525a629f51be77033604080516001600160a01b0390921682523460208301520160405180910390a1005b600080fd5b34801561035d57600080fd5b5061037161036c366004612c27565b6109b9565b60405190151581526020015b60405180910390f35b34801561039257600080fd5b5061039b610a0b565b60405161037d9190612c9c565b3480156103b457600080fd5b506103c86103c3366004612caf565b610a9d565b6040516001600160a01b03909116815260200161037d565b3480156103ec57600080fd5b506104006103fb366004612cdd565b610b37565b005b34801561040e57600080fd5b506019546103719062010000900460ff1681565b34801561042e57600080fd5b50610437610c4d565b60405190815260200161037d565b34801561045157600080fd5b50610400610460366004612d09565b610c5d565b34801561047157600080fd5b50610400610480366004612d26565b610d8b565b34801561049157600080fd5b50610400610dbc565b3480156104a657600080fd5b50600854610437565b3480156104bb57600080fd5b5060195461037190640100000000900460ff1681565b3480156104dd57600080fd5b506104376104ec366004612d67565b6001600160a01b039182166000908152600e6020908152604080832093909416825291909152205490565b34801561052357600080fd5b50610400610532366004612d26565b610e09565b34801561054357600080fd5b50610400610552366004612d67565b610e24565b34801561056357600080fd5b5060195461037190610100900460ff1681565b34801561058257600080fd5b50610400610591366004612e2c565b61100c565b3480156105a257600080fd5b506019546103719060ff1681565b3480156105bc57600080fd5b506103c86105cb366004612caf565b61104d565b3480156105dc57600080fd5b506104006110c4565b3480156105f157600080fd5b50610437610600366004612d09565b611115565b34801561061157600080fd5b5061040061119c565b34801561062657600080fd5b50610400610635366004612caf565b6111d2565b34801561064657600080fd5b506103c8610655366004612caf565b611201565b34801561066657600080fd5b50610437610675366004612d09565b60106020526000908152604090205481565b34801561069357600080fd5b506006546001600160a01b03166103c8565b3480156106b157600080fd5b506104006106c0366004612caf565b611231565b3480156106d157600080fd5b5061043760155481565b6104006106e9366004612e75565b611260565b3480156106fa57600080fd5b5061039b61152e565b34801561070f57600080fd5b5061043761071e366004612d09565b6001600160a01b03166000908152600b602052604090205490565b34801561074557600080fd5b5061043760135481565b61040061075d366004612e75565b61153d565b34801561076e57600080fd5b5061040061077d366004612f0f565b6117ec565b34801561078e57600080fd5b50601954610371906301000000900460ff1681565b3480156107af57600080fd5b5061039b6117f7565b3480156107c457600080fd5b50610400611885565b3480156107d957600080fd5b506104006107e8366004612caf565b6118c0565b6104006107fb366004612caf565b6118ef565b34801561080c57600080fd5b5061040061081b366004612f3d565b611a9f565b34801561082c57600080fd5b50610400611ad7565b34801561084157600080fd5b5061039b611b15565b34801561085657600080fd5b5061039b610865366004612caf565b611b22565b34801561087657600080fd5b50610437610885366004612d09565b6001600160a01b03166000908152600a602052604090205490565b3480156108ac57600080fd5b5061043760145481565b3480156108c257600080fd5b506104376108d1366004612d09565b6001600160a01b03166000908152600d602052604090205490565b3480156108f857600080fd5b50610400610907366004612e2c565b611ca1565b34801561091857600080fd5b50610400611cde565b34801561092d57600080fd5b50600954610437565b34801561094257600080fd5b50610371610951366004612d67565b611d2d565b34801561096257600080fd5b50610437600f5481565b34801561097857600080fd5b50610400610987366004612d09565b611dfd565b34801561099857600080fd5b506104376109a7366004612d09565b60116020526000908152604090205481565b60006001600160e01b031982166380ac58cd60e01b14806109ea57506001600160e01b03198216635b5e139f60e01b145b80610a0557506301ffc9a760e01b6001600160e01b03198316145b92915050565b606060008054610a1a90612fbd565b80601f0160208091040260200160405190810160405280929190818152602001828054610a4690612fbd565b8015610a935780601f10610a6857610100808354040283529160200191610a93565b820191906000526020600020905b815481529060010190602001808311610a7657829003601f168201915b5050505050905090565b6000818152600260205260408120546001600160a01b0316610b1b5760405162461bcd60e51b815260206004820152602c60248201527f4552433732313a20617070726f76656420717565727920666f72206e6f6e657860448201526b34b9ba32b73a103a37b5b2b760a11b60648201526084015b60405180910390fd5b506000908152600460205260409020546001600160a01b031690565b6000610b428261104d565b9050806001600160a01b0316836001600160a01b03161415610bb05760405162461bcd60e51b815260206004820152602160248201527f4552433732313a20617070726f76616c20746f2063757272656e74206f776e656044820152603960f91b6064820152608401610b12565b336001600160a01b0382161480610bcc5750610bcc8133611d2d565b610c3e5760405162461bcd60e51b815260206004820152603860248201527f4552433732313a20617070726f76652063616c6c6572206973206e6f74206f7760448201527f6e6572206e6f7220617070726f76656420666f7220616c6c00000000000000006064820152608401610b12565b610c488383611e98565b505050565b6000610c58601a5490565b905090565b6001600160a01b0381166000908152600a6020526040902054610c925760405162461bcd60e51b8152600401610b1290612ff8565b6000610c9d60095490565b610ca79047613054565b90506000610cd48383610ccf866001600160a01b03166000908152600b602052604090205490565b611f06565b905080610cf35760405162461bcd60e51b8152600401610b129061306c565b6001600160a01b0383166000908152600b602052604081208054839290610d1b908490613054565b925050819055508060096000828254610d349190613054565b90915550610d4490508382611f44565b604080516001600160a01b0385168152602081018390527fdf20fd1e76bc69d672e4814fafb2c449bba3a5369d8359adf9e05e6fde87b056910160405180910390a1505050565b610d95338261205d565b610db15760405162461bcd60e51b8152600401610b12906130b7565b610c48838383612133565b6006546001600160a01b03163314610de65760405162461bcd60e51b8152600401610b1290613108565b6019805462ff00ff198116620100009182900460ff161590910260ff1916179055565b610c4883838360405180602001604052806000815250611a9f565b6001600160a01b0381166000908152600a6020526040902054610e595760405162461bcd60e51b8152600401610b1290612ff8565b6001600160a01b0382166000908152600d60205260408120546040516370a0823160e01b81523060048201526001600160a01b038516906370a082319060240160206040518083038186803b158015610eb157600080fd5b505afa158015610ec5573d6000803e3d6000fd5b505050506040513d601f19601f82011682018060405250810190610ee9919061313d565b610ef39190613054565b90506000610f2c8383610ccf87876001600160a01b039182166000908152600e6020908152604080832093909416825291909152205490565b905080610f4b5760405162461bcd60e51b8152600401610b129061306c565b6001600160a01b038085166000908152600e6020908152604080832093871683529290529081208054839290610f82908490613054565b90915550506001600160a01b0384166000908152600d602052604081208054839290610faf908490613054565b90915550610fc090508484836122cf565b604080516001600160a01b038581168252602082018490528616917f3be5b7a71e84ed12875d241991c70855ac5817d847039e17a9d895c1ceb0f18a910160405180910390a250505050565b6006546001600160a01b031633146110365760405162461bcd60e51b8152600401610b1290613108565b8051611049906016906020840190612b78565b5050565b6000818152600260205260408120546001600160a01b031680610a055760405162461bcd60e51b815260206004820152602960248201527f4552433732313a206f776e657220717565727920666f72206e6f6e657869737460448201526832b73a103a37b5b2b760b91b6064820152608401610b12565b6006546001600160a01b031633146110ee5760405162461bcd60e51b8152600401610b1290613108565b6019805464ff000000ff1981166401000000009182900460ff161590910260ff1916179055565b60006001600160a01b0382166111805760405162461bcd60e51b815260206004820152602a60248201527f4552433732313a2062616c616e636520717565727920666f7220746865207a65604482015269726f206164647265737360b01b6064820152608401610b12565b506001600160a01b031660009081526003602052604090205490565b6006546001600160a01b031633146111c65760405162461bcd60e51b8152600401610b1290613108565b6111d06000612321565b565b6006546001600160a01b031633146111fc5760405162461bcd60e51b8152600401610b1290613108565b600f55565b6000600c828154811061121657611216613156565b6000918252602090912001546001600160a01b031692915050565b6006546001600160a01b0316331461125b5760405162461bcd60e51b8152600401610b1290613108565b601355565b81816112d882828080602002602001604051908101604052809392919081815260200183836020028082843760009201919091525050600f546040516bffffffffffffffffffffffff193360601b16602082015290925060340190505b60405160208183030381529060405280519060200120612373565b15156001146112f95760405162461bcd60e51b8152600401610b129061316c565b3332146113185760405162461bcd60e51b8152600401610b129061316c565b336001600160a01b0387161461136b5760405162461bcd60e51b815260206004820152601860248201527711d95b995c9a58d15e595cce88139bdd08185b1b1bddd95960421b6044820152606401610b12565b60195462010000900460ff166113c35760405162461bcd60e51b815260206004820152601b60248201527f47656e65726963457965733a2050726573616c65206973204f464600000000006044820152606401610b12565b60195460ff16156113e65760405162461bcd60e51b8152600401610b1290613198565b6015548511156114085760405162461bcd60e51b8152600401610b12906131cf565b60155433600090815260116020526040902054611426908790613054565b11156114445760405162461bcd60e51b8152600401610b12906131cf565b600061144f601a5490565b60145490915061145f8783613054565b11156114ad5760405162461bcd60e51b815260206004820181905260248201527f47656e65726963457965733a206d617820737570706c792065786365656465646044820152606401610b12565b34866013546114bc9190613219565b11156114da5760405162461bcd60e51b8152600401610b1290613238565b33600090815260116020526040812080548892906114f9908490613054565b90915550600090505b8681101561152457611512612389565b8061151c8161327b565b915050611502565b5050505050505050565b606060018054610a1a90612fbd565b818161159e82828080602002602001604051908101604052809392919081815260200183836020028082843760009201919091525050600f546040516bffffffffffffffffffffffff193360601b16602082015290925060340190506112bd565b15156001146115bf5760405162461bcd60e51b8152600401610b129061316c565b3332146115de5760405162461bcd60e51b8152600401610b129061316c565b336001600160a01b038716146116315760405162461bcd60e51b815260206004820152601860248201527711d95b995c9a58d15e595cce88139bdd08185b1b1bddd95960421b6044820152606401610b12565b601954640100000000900460ff1661168b5760405162461bcd60e51b815260206004820152601760248201527f47656e65726963457965733a20564950206973204f46460000000000000000006044820152606401610b12565b60195460ff16156116ae5760405162461bcd60e51b8152600401610b1290613198565b6015548511156116d05760405162461bcd60e51b8152600401610b1290613296565b601554336000908152601060205260409020546116ee908790613054565b111561170c5760405162461bcd60e51b8152600401610b1290613296565b6000611717601a5490565b6014549091506117278783613054565b11156117755760405162461bcd60e51b815260206004820181905260248201527f47656e65726963457965733a206d617820737570706c792065786365656465646044820152606401610b12565b34866013546117849190613219565b11156117a25760405162461bcd60e51b8152600401610b1290613238565b33600090815260106020526040812080548892906117c1908490613054565b90915550600090505b86811015611524576117da612389565b806117e48161327b565b9150506117ca565b61104933838361240e565b6017805461180490612fbd565b80601f016020809104026020016040519081016040528092919081815260200182805461183090612fbd565b801561187d5780601f106118525761010080835404028352916020019161187d565b820191906000526020600020905b81548152906001019060200180831161186057829003601f168201915b505050505081565b6006546001600160a01b031633146118af5760405162461bcd60e51b8152600401610b1290613108565b6019805461ff001916610100179055565b6006546001600160a01b031633146118ea5760405162461bcd60e51b8152600401610b1290613108565b601555565b33321461190e5760405162461bcd60e51b8152600401610b129061316c565b6019546301000000900460ff166119675760405162461bcd60e51b815260206004820152601e60248201527f47656e65726963457965733a205075626c696353616c65206973204f464600006044820152606401610b12565b60195460ff161561198a5760405162461bcd60e51b8152600401610b1290613198565b600081116119da5760405162461bcd60e51b815260206004820152601860248201527f47656e65726963457965733a207a65726f20616d6f756e7400000000000000006044820152606401610b12565b60006119e5601a5490565b6014549091506119f58383613054565b1115611a4d5760405162461bcd60e51b815260206004820152602160248201527f47656e6572696345796573733a204d617820737570706c7920657863656564656044820152601960fa1b6064820152608401610b12565b3482601354611a5c9190613219565b1115611a7a5760405162461bcd60e51b8152600401610b1290613238565b60005b82811015610c4857611a8d612389565b80611a978161327b565b915050611a7d565b611aa9338361205d565b611ac55760405162461bcd60e51b8152600401610b12906130b7565b611ad1848484846124dd565b50505050565b6006546001600160a01b03163314611b015760405162461bcd60e51b8152600401610b1290613108565b6019805460ff19811660ff90911615179055565b6018805461180490612fbd565b6000818152600260205260409020546060906001600160a01b0316611ba15760405162461bcd60e51b815260206004820152602f60248201527f4552433732314d657461646174613a2055524920717565727920666f72206e6f60448201526e3732bc34b9ba32b73a103a37b5b2b760891b6064820152608401610b12565b601954610100900460ff16611c425760178054611bbd90612fbd565b80601f0160208091040260200160405190810160405280929190818152602001828054611be990612fbd565b8015611c365780601f10611c0b57610100808354040283529160200191611c36565b820191906000526020600020905b815481529060010190602001808311611c1957829003601f168201915b50505050509050919050565b6000611c4c612510565b90506000815111611c6c5760405180602001604052806000815250611c9a565b80611c768461251f565b6018604051602001611c8a939291906132e0565b6040516020818303038152906040525b9392505050565b6006546001600160a01b03163314611ccb5760405162461bcd60e51b8152600401610b1290613108565b8051611049906018906020840190612b78565b6006546001600160a01b03163314611d085760405162461bcd60e51b8152600401610b1290613108565b6019805463ff0000ff19811663010000009182900460ff161590910260ff1916179055565b60125460405163c455279160e01b81526001600160a01b03848116600483015260009281169190841690829063c45527919060240160206040518083038186803b158015611d7a57600080fd5b505afa158015611d8e573d6000803e3d6000fd5b505050506040513d601f19601f82011682018060405250810190611db291906133a4565b6001600160a01b03161415611dcb576001915050610a05565b6001600160a01b0380851660009081526005602090815260408083209387168352929052205460ff165b949350505050565b6006546001600160a01b03163314611e275760405162461bcd60e51b8152600401610b1290613108565b6001600160a01b038116611e8c5760405162461bcd60e51b815260206004820152602660248201527f4f776e61626c653a206e6577206f776e657220697320746865207a65726f206160448201526564647265737360d01b6064820152608401610b12565b611e9581612321565b50565b600081815260046020526040902080546001600160a01b0319166001600160a01b0384169081179091558190611ecd8261104d565b6001600160a01b03167f8c5be1e5ebec7d5bd14f71427d1e84f3dd0314c0f7b2291e5b200ac8c7c3b92560405160405180910390a45050565b6008546001600160a01b0384166000908152600a602052604081205490918391611f309086613219565b611f3a91906133d7565b611df591906133eb565b80471015611f945760405162461bcd60e51b815260206004820152601d60248201527f416464726573733a20696e73756666696369656e742062616c616e63650000006044820152606401610b12565b6000826001600160a01b03168260405160006040518083038185875af1925050503d8060008114611fe1576040519150601f19603f3d011682016040523d82523d6000602084013e611fe6565b606091505b5050905080610c485760405162461bcd60e51b815260206004820152603a60248201527f416464726573733a20756e61626c6520746f2073656e642076616c75652c207260448201527f6563697069656e74206d617920686176652072657665727465640000000000006064820152608401610b12565b6000818152600260205260408120546001600160a01b03166120d65760405162461bcd60e51b815260206004820152602c60248201527f4552433732313a206f70657261746f7220717565727920666f72206e6f6e657860448201526b34b9ba32b73a103a37b5b2b760a11b6064820152608401610b12565b60006120e18361104d565b9050806001600160a01b0316846001600160a01b0316148061210857506121088185611d2d565b80611df55750836001600160a01b031661212184610a9d565b6001600160a01b031614949350505050565b826001600160a01b03166121468261104d565b6001600160a01b0316146121aa5760405162461bcd60e51b815260206004820152602560248201527f4552433732313a207472616e736665722066726f6d20696e636f72726563742060448201526437bbb732b960d91b6064820152608401610b12565b6001600160a01b03821661220c5760405162461bcd60e51b8152602060048201526024808201527f4552433732313a207472616e7366657220746f20746865207a65726f206164646044820152637265737360e01b6064820152608401610b12565b612217600082611e98565b6001600160a01b03831660009081526003602052604081208054600192906122409084906133eb565b90915550506001600160a01b038216600090815260036020526040812080546001929061226e908490613054565b909155505060008181526002602052604080822080546001600160a01b0319166001600160a01b0386811691821790925591518493918716917fddf252ad1be2c89b69c2b068fc378daa952ba7f163c4a11628f55a4df523b3ef91a4505050565b604080516001600160a01b038416602482015260448082018490528251808303909101815260649091019091526020810180516001600160e01b031663a9059cbb60e01b179052610c4890849061261d565b600680546001600160a01b038381166001600160a01b0319831681179093556040519116919082907f8be0079c531659141344cd1fd0a4f28419497f9722a3daafe3b4186f6b6457e090600090a35050565b60008261238085846126ef565b14949350505050565b600260075414156123dc5760405162461bcd60e51b815260206004820152601f60248201527f5265656e7472616e637947756172643a207265656e7472616e742063616c6c006044820152606401610b12565b60026007556123ef601a80546001019055565b60006123fa601a5490565b90506124063382612763565b506001600755565b816001600160a01b0316836001600160a01b031614156124705760405162461bcd60e51b815260206004820152601960248201527f4552433732313a20617070726f766520746f2063616c6c6572000000000000006044820152606401610b12565b6001600160a01b03838116600081815260056020908152604080832094871680845294825291829020805460ff191686151590811790915591519182527f17307eab39ab6107e8899845ad3d59bd9653f200f220920489ca2b5937696c31910160405180910390a3505050565b6124e8848484612133565b6124f48484848461277d565b611ad15760405162461bcd60e51b8152600401610b1290613402565b606060168054610a1a90612fbd565b6060816125435750506040805180820190915260018152600360fc1b602082015290565b8160005b811561256d57806125578161327b565b91506125669050600a836133d7565b9150612547565b60008167ffffffffffffffff81111561258857612588612da0565b6040519080825280601f01601f1916602001820160405280156125b2576020820181803683370190505b5090505b8415611df5576125c76001836133eb565b91506125d4600a86613454565b6125df906030613054565b60f81b8183815181106125f4576125f4613156565b60200101906001600160f81b031916908160001a905350612616600a866133d7565b94506125b6565b6000612672826040518060400160405280602081526020017f5361666545524332303a206c6f772d6c6576656c2063616c6c206661696c6564815250856001600160a01b031661288a9092919063ffffffff16565b805190915015610c4857808060200190518101906126909190613468565b610c485760405162461bcd60e51b815260206004820152602a60248201527f5361666545524332303a204552433230206f7065726174696f6e20646964206e6044820152691bdd081cdd58d8d9595960b21b6064820152608401610b12565b600081815b845181101561275b57600085828151811061271157612711613156565b602002602001015190508083116127375760008381526020829052604090209250612748565b600081815260208490526040902092505b50806127538161327b565b9150506126f4565b509392505050565b611049828260405180602001604052806000815250612899565b60006001600160a01b0384163b1561287f57604051630a85bd0160e11b81526001600160a01b0385169063150b7a02906127c1903390899088908890600401613485565b602060405180830381600087803b1580156127db57600080fd5b505af192505050801561280b575060408051601f3d908101601f19168201909252612808918101906134c2565b60015b612865573d808015612839576040519150601f19603f3d011682016040523d82523d6000602084013e61283e565b606091505b50805161285d5760405162461bcd60e51b8152600401610b1290613402565b805181602001fd5b6001600160e01b031916630a85bd0160e11b149050611df5565b506001949350505050565b6060611df584846000856128cc565b6128a383836129fd565b6128b0600084848461277d565b610c485760405162461bcd60e51b8152600401610b1290613402565b60608247101561292d5760405162461bcd60e51b815260206004820152602660248201527f416464726573733a20696e73756666696369656e742062616c616e636520666f6044820152651c8818d85b1b60d21b6064820152608401610b12565b6001600160a01b0385163b6129845760405162461bcd60e51b815260206004820152601d60248201527f416464726573733a2063616c6c20746f206e6f6e2d636f6e74726163740000006044820152606401610b12565b600080866001600160a01b031685876040516129a091906134df565b60006040518083038185875af1925050503d80600081146129dd576040519150601f19603f3d011682016040523d82523d6000602084013e6129e2565b606091505b50915091506129f2828286612b3f565b979650505050505050565b6001600160a01b038216612a535760405162461bcd60e51b815260206004820181905260248201527f4552433732313a206d696e7420746f20746865207a65726f20616464726573736044820152606401610b12565b6000818152600260205260409020546001600160a01b031615612ab85760405162461bcd60e51b815260206004820152601c60248201527f4552433732313a20746f6b656e20616c7265616479206d696e746564000000006044820152606401610b12565b6001600160a01b0382166000908152600360205260408120805460019290612ae1908490613054565b909155505060008181526002602052604080822080546001600160a01b0319166001600160a01b03861690811790915590518392907fddf252ad1be2c89b69c2b068fc378daa952ba7f163c4a11628f55a4df523b3ef908290a45050565b60608315612b4e575081611c9a565b825115612b5e5782518084602001fd5b8160405162461bcd60e51b8152600401610b129190612c9c565b828054612b8490612fbd565b90600052602060002090601f016020900481019282612ba65760008555612bec565b82601f10612bbf57805160ff1916838001178555612bec565b82800160010185558215612bec579182015b82811115612bec578251825591602001919060010190612bd1565b50612bf8929150612bfc565b5090565b5b80821115612bf85760008155600101612bfd565b6001600160e01b031981168114611e9557600080fd5b600060208284031215612c3957600080fd5b8135611c9a81612c11565b60005b83811015612c5f578181015183820152602001612c47565b83811115611ad15750506000910152565b60008151808452612c88816020860160208601612c44565b601f01601f19169290920160200192915050565b602081526000611c9a6020830184612c70565b600060208284031215612cc157600080fd5b5035919050565b6001600160a01b0381168114611e9557600080fd5b60008060408385031215612cf057600080fd5b8235612cfb81612cc8565b946020939093013593505050565b600060208284031215612d1b57600080fd5b8135611c9a81612cc8565b600080600060608486031215612d3b57600080fd5b8335612d4681612cc8565b92506020840135612d5681612cc8565b929592945050506040919091013590565b60008060408385031215612d7a57600080fd5b8235612d8581612cc8565b91506020830135612d9581612cc8565b809150509250929050565b634e487b7160e01b600052604160045260246000fd5b600067ffffffffffffffff80841115612dd157612dd1612da0565b604051601f8501601f19908116603f01168101908282118183101715612df957612df9612da0565b81604052809350858152868686011115612e1257600080fd5b858560208301376000602087830101525050509392505050565b600060208284031215612e3e57600080fd5b813567ffffffffffffffff811115612e5557600080fd5b8201601f81018413612e6657600080fd5b611df584823560208401612db6565b60008060008060608587031215612e8b57600080fd5b8435612e9681612cc8565b935060208501359250604085013567ffffffffffffffff80821115612eba57600080fd5b818701915087601f830112612ece57600080fd5b813581811115612edd57600080fd5b8860208260051b8501011115612ef257600080fd5b95989497505060200194505050565b8015158114611e9557600080fd5b60008060408385031215612f2257600080fd5b8235612f2d81612cc8565b91506020830135612d9581612f01565b60008060008060808587031215612f5357600080fd5b8435612f5e81612cc8565b93506020850135612f6e81612cc8565b925060408501359150606085013567ffffffffffffffff811115612f9157600080fd5b8501601f81018713612fa257600080fd5b612fb187823560208401612db6565b91505092959194509250565b600181811c90821680612fd157607f821691505b60208210811415612ff257634e487b7160e01b600052602260045260246000fd5b50919050565b60208082526026908201527f5061796d656e7453706c69747465723a206163636f756e7420686173206e6f2060408201526573686172657360d01b606082015260800190565b634e487b7160e01b600052601160045260246000fd5b600082198211156130675761306761303e565b500190565b6020808252602b908201527f5061796d656e7453706c69747465723a206163636f756e74206973206e6f742060408201526a191d59481c185e5b595b9d60aa1b606082015260800190565b60208082526031908201527f4552433732313a207472616e736665722063616c6c6572206973206e6f74206f6040820152701ddb995c881b9bdc88185c1c1c9bdd9959607a1b606082015260800190565b6020808252818101527f4f776e61626c653a2063616c6c6572206973206e6f7420746865206f776e6572604082015260600190565b60006020828403121561314f57600080fd5b5051919050565b634e487b7160e01b600052603260045260246000fd5b6020808252601290820152712737ba1030b63637bbb2b21037b934b3b4b760711b604082015260600190565b6020808252601f908201527f47656e65726963457965733a20436f6e74726163742069732070617573656400604082015260600190565b6020808252602a908201527f47656e65726963457965733a20596f752063616e2774206d696e7420736f206d60408201526975636820746f6b656e7360b01b606082015260800190565b60008160001904831182151516156132335761323361303e565b500290565b60208082526023908201527f47656e65726963457965733a204e6f7420656e6f756768206574686572732073604082015262195b9d60ea1b606082015260800190565b600060001982141561328f5761328f61303e565b5060010190565b6020808252602a908201527f47656e65726963457965733a20596f752063616e2774206d696e7420736f206d604082015269616e7920746f6b656e7360b01b606082015260800190565b6000845160206132f38285838a01612c44565b8551918401916133068184848a01612c44565b8554920191600090600181811c908083168061332357607f831692505b85831081141561334157634e487b7160e01b85526022600452602485fd5b808015613355576001811461336657613393565b60ff19851688528388019550613393565b60008b81526020902060005b8581101561338b5781548a820152908401908801613372565b505083880195505b50939b9a5050505050505050505050565b6000602082840312156133b657600080fd5b8151611c9a81612cc8565b634e487b7160e01b600052601260045260246000fd5b6000826133e6576133e66133c1565b500490565b6000828210156133fd576133fd61303e565b500390565b60208082526032908201527f4552433732313a207472616e7366657220746f206e6f6e20455243373231526560408201527131b2b4bb32b91034b6b83632b6b2b73a32b960711b606082015260800190565b600082613463576134636133c1565b500690565b60006020828403121561347a57600080fd5b8151611c9a81612f01565b6001600160a01b03858116825284166020820152604081018390526080606082018190526000906134b890830184612c70565b9695505050505050565b6000602082840312156134d457600080fd5b8151611c9a81612c11565b600082516134f1818460208701612c44565b919091019291505056fea26469706673582212201c7277198579bfe2c1c7683d334be382f54e9a111f758e94e55eb0c4a2c4dcca64736f6c634300080900334f776e61626c653a2063616c6c6572206973206e6f7420746865206f776e6572697066733a2f2f516d58625374394631667832567676675335486a37467253615a65356b393970415a7632474b763148394d6666332f68696464656e2e6a736f6e",
  "linkReferences": {},
  "deployedLinkReferences": {}
}